{
  "transactions": [
    {
      "hash": "0x37e549926cd444a5cb49ed91b0ec687ff7f46bae1ad22bba6acd27aa5bc5a2c8",
      "transactionType": "CALL",
      "contractName": null,
      "contractAddress": "0x9ceb0ecff78cecbc3cb1dbbc66ed3f0a7aebb4fa",
      "function": "setDelegation(address)",
      "arguments": [
        "0x37d2b2ca45B85F45Ea07C990D2993CFcE674E27e"
      ],
      "transaction": {
        "from": "0x0dc9776ac54ee9c30e41d3918620f51105606515",
        "to": "0x9ceb0ecff78cecbc3cb1dbbc66ed3f0a7aebb4fa",
        "gas": "0x9105",
        "value": "0x0",
        "input": "0xe6b3e70400000000000000000000000037d2b2ca45b85f45ea07c990d2993cfce674e27e",
        "nonce": "0x41",
        "chainId": "0xaa36a7"
      },
      "additionalContracts": [],
      "isFixedGasLimit": false
    },
    {
      "hash": "0xc592e1e0524ddd4e0999f8243d38445f86cacb8710957792fbc3544962f98151",
      "transactionType": "CALL",
      "contractName": null,
      "contractAddress": "0x9ceb0ecff78cecbc3cb1dbbc66ed3f0a7aebb4fa",
      "function": "transfer(address,uint256)",
      "arguments": [
        "0x293032BA5dcC00f817dF26d59529AeeD5dfFf3aE",
        "0"
      ],
      "transaction": {
        "from": "0x0dc9776ac54ee9c30e41d3918620f51105606515",
        "to": "0x9ceb0ecff78cecbc3cb1dbbc66ed3f0a7aebb4fa",
        "gas": "0x14e3c",
        "value": "0x0",
        "input": "0xa9059cbb000000000000000000000000293032ba5dcc00f817df26d59529aeed5dfff3ae0000000000000000000000000000000000000000000000000000000000000000",
        "nonce": "0x42",
        "chainId": "0xaa36a7"
      },
      "additionalContracts": [],
      "isFixedGasLimit": false
    }
  ],
  "receipts": [
    {
      "status": "0x1",
      "cumulativeGasUsed": "0xbc8817",
      "logs": [],
      "logsBloom": "0x00000000000000000000000000000000000000000000000000000000000000000000000000000000000000000000000000000000000000000000000000000000000000000000000000000000000000000000000000000000000000000000000000000000000000000000000000000000000000000000000000000000000000000000000000000000000000000000000000000000000000000000000000000000000000000000000000000000000000000000000000000000000000000000000000000000000000000000000000000000000000000000000000000000000000000000000000000000000000000000000000000000000000000000000000000000",
      "type": "0x2",
      "transactionHash": "0x37e549926cd444a5cb49ed91b0ec687ff7f46bae1ad22bba6acd27aa5bc5a2c8",
      "transactionIndex": "0x57",
      "blockHash": "0xff810ccdd00c1d319a632ab0077f835edad06de478b0c316b87be9a3d2380695",
      "blockNumber": "0x6f48f3",
      "gasUsed": "0x68ff",
      "effectiveGasPrice": "0xc2352fba",
      "from": "0x0dc9776ac54ee9c30e41d3918620f51105606515",
      "to": "0x9ceb0ecff78cecbc3cb1dbbc66ed3f0a7aebb4fa",
      "contractAddress": null
    },
    {
      "status": "0x1",
      "cumulativeGasUsed": "0xbd7a13",
      "logs": [
        {
          "address": "0x9ceb0ecff78cecbc3cb1dbbc66ed3f0a7aebb4fa",
          "topics": [
            "0xddf252ad1be2c89b69c2b068fc378daa952ba7f163c4a11628f55a4df523b3ef",
            "0x0000000000000000000000000dc9776ac54ee9c30e41d3918620f51105606515",
            "0x000000000000000000000000293032ba5dcc00f817df26d59529aeed5dfff3ae"
          ],
          "data": "0x0000000000000000000000000000000000000000000000000000000000000000",
          "blockHash": "0xff810ccdd00c1d319a632ab0077f835edad06de478b0c316b87be9a3d2380695",
          "blockNumber": "0x6f48f3",
          "transactionHash": "0xc592e1e0524ddd4e0999f8243d38445f86cacb8710957792fbc3544962f98151",
          "transactionIndex": "0x58",
          "logIndex": "0x176",
          "removed": false
        }
      ],
      "logsBloom": "0x00000020000000000000000000000000000000000000000000000000000000000000000200000000000000000000000000000000000000000400000004000000000000010000000000000008000000000000000000000000000000000000000000000000000000000000000000000000000008000000000000000010000000000000000000000000000000000000000000000000000800000000000000000000000000000000000000000000000000000000000000000000000000020000000000000002000000000000000000000000000000000000000000000000000000000000000000000000000000000000080000000000000000000000000000000000",
      "type": "0x2",
      "transactionHash": "0xc592e1e0524ddd4e0999f8243d38445f86cacb8710957792fbc3544962f98151",
      "transactionIndex": "0x58",
      "blockHash": "0xff810ccdd00c1d319a632ab0077f835edad06de478b0c316b87be9a3d2380695",
      "blockNumber": "0x6f48f3",
      "gasUsed": "0xf1fc",
      "effectiveGasPrice": "0xc2352fba",
      "from": "0x0dc9776ac54ee9c30e41d3918620f51105606515",
      "to": "0x9ceb0ecff78cecbc3cb1dbbc66ed3f0a7aebb4fa",
      "contractAddress": null
    }
  ],
  "libraries": [],
  "pending": [],
  "returns": {},
  "timestamp": 1734382136,
  "chain": 11155111,
  "commit": "525a519"
}