{
  "transactions": [
    {
      "hash": "0x1656faebc5dc3411947274df4ab6173c0497a5b8725a1cffdd3edfcbc3e80406",
      "transactionType": "CALL",
      "contractName": null,
      "contractAddress": "0x9ceb0ecff78cecbc3cb1dbbc66ed3f0a7aebb4fa",
      "function": "setDelegation(address)",
      "arguments": [
        "0x9289A0C190797f75a1802aC72dd01c3cCdb786eF"
      ],
      "transaction": {
        "from": "0x0dc9776ac54ee9c30e41d3918620f51105606515",
        "to": "0x9ceb0ecff78cecbc3cb1dbbc66ed3f0a7aebb4fa",
        "gas": "0x81e9",
        "value": "0x0",
        "input": "0xe6b3e7040000000000000000000000009289a0c190797f75a1802ac72dd01c3ccdb786ef",
        "nonce": "0x3f",
        "chainId": "0xaa36a7"
      },
      "additionalContracts": [],
      "isFixedGasLimit": false
    },
    {
      "hash": "0x200ef2ac3661409d2f35fc118345acf85605adc4bbdc439df2edac9d565ff4fd",
      "transactionType": "CALL",
      "contractName": null,
      "contractAddress": "0x9ceb0ecff78cecbc3cb1dbbc66ed3f0a7aebb4fa",
      "function": "mint(uint256,uint256)",
      "arguments": [
        "1",
        "1"
      ],
      "transaction": {
        "from": "0x0dc9776ac54ee9c30e41d3918620f51105606515",
        "to": "0x9ceb0ecff78cecbc3cb1dbbc66ed3f0a7aebb4fa",
        "gas": "0x2d341",
        "value": "0x0",
        "input": "0x1b2ef1ca00000000000000000000000000000000000000000000000000000000000000010000000000000000000000000000000000000000000000000000000000000001",
        "nonce": "0x40",
        "chainId": "0xaa36a7"
      },
      "additionalContracts": [],
      "isFixedGasLimit": false
    }
  ],
  "receipts": [
    {
      "status": "0x1",
      "cumulativeGasUsed": "0x123722e",
      "logs": [],
      "logsBloom": "0x00000000000000000000000000000000000000000000000000000000000000000000000000000000000000000000000000000000000000000000000000000000000000000000000000000000000000000000000000000000000000000000000000000000000000000000000000000000000000000000000000000000000000000000000000000000000000000000000000000000000000000000000000000000000000000000000000000000000000000000000000000000000000000000000000000000000000000000000000000000000000000000000000000000000000000000000000000000000000000000000000000000000000000000000000000000",
      "type": "0x2",
      "transactionHash": "0x1656faebc5dc3411947274df4ab6173c0497a5b8725a1cffdd3edfcbc3e80406",
      "transactionIndex": "0x5a",
      "blockHash": "0x19aafafd729f49149ad2a79afb3be72211960a0ba720f3b436614fb5226bf372",
      "blockNumber": "0x6f48ea",
      "gasUsed": "0x5e0f",
      "effectiveGasPrice": "0xe75a0a47",
      "from": "0x0dc9776ac54ee9c30e41d3918620f51105606515",
      "to": "0x9ceb0ecff78cecbc3cb1dbbc66ed3f0a7aebb4fa",
      "contractAddress": null
    },
    {
      "status": "0x1",
      "cumulativeGasUsed": "0x12560b7",
      "logs": [],
      "logsBloom": "0x00000000000000000000000000000000000000000000000000000000000000000000000000000000000000000000000000000000000000000000000000000000000000000000000000000000000000000000000000000000000000000000000000000000000000000000000000000000000000000000000000000000000000000000000000000000000000000000000000000000000000000000000000000000000000000000000000000000000000000000000000000000000000000000000000000000000000000000000000000000000000000000000000000000000000000000000000000000000000000000000000000000000000000000000000000000",
      "type": "0x2",
      "transactionHash": "0x200ef2ac3661409d2f35fc118345acf85605adc4bbdc439df2edac9d565ff4fd",
      "transactionIndex": "0x5b",
      "blockHash": "0x19aafafd729f49149ad2a79afb3be72211960a0ba720f3b436614fb5226bf372",
      "blockNumber": "0x6f48ea",
      "gasUsed": "0x1ee89",
      "effectiveGasPrice": "0xe75a0a47",
      "from": "0x0dc9776ac54ee9c30e41d3918620f51105606515",
      "to": "0x9ceb0ecff78cecbc3cb1dbbc66ed3f0a7aebb4fa",
      "contractAddress": null
    }
  ],
  "libraries": [],
  "pending": [],
  "returns": {},
  "timestamp": 1734382025,
  "chain": 11155111,
  "commit": "525a519"
}